{
  "_format": "hh-sol-artifact-1",
  "contractName": "RoboPunksNFT",
  "sourceName": "contracts/RoboPunkNFT.sol",
  "abi": [
    {
      "inputs": [],
      "stateMutability": "payable",
      "type": "constructor"
    },
    {
      "anonymous": false,
      "inputs": [
        {
          "indexed": true,
          "internalType": "address",
          "name": "owner",
          "type": "address"
        },
        {
          "indexed": true,
          "internalType": "address",
          "name": "approved",
          "type": "address"
        },
        {
          "indexed": true,
          "internalType": "uint256",
          "name": "tokenId",
          "type": "uint256"
        }
      ],
      "name": "Approval",
      "type": "event"
    },
    {
      "anonymous": false,
      "inputs": [
        {
          "indexed": true,
          "internalType": "address",
          "name": "owner",
          "type": "address"
        },
        {
          "indexed": true,
          "internalType": "address",
          "name": "operator",
          "type": "address"
        },
        {
          "indexed": false,
          "internalType": "bool",
          "name": "approved",
          "type": "bool"
        }
      ],
      "name": "ApprovalForAll",
      "type": "event"
    },
    {
      "anonymous": false,
      "inputs": [
        {
          "indexed": true,
          "internalType": "address",
          "name": "previousOwner",
          "type": "address"
        },
        {
          "indexed": true,
          "internalType": "address",
          "name": "newOwner",
          "type": "address"
        }
      ],
      "name": "OwnershipTransferred",
      "type": "event"
    },
    {
      "anonymous": false,
      "inputs": [
        {
          "indexed": true,
          "internalType": "address",
          "name": "from",
          "type": "address"
        },
        {
          "indexed": true,
          "internalType": "address",
          "name": "to",
          "type": "address"
        },
        {
          "indexed": true,
          "internalType": "uint256",
          "name": "tokenId",
          "type": "uint256"
        }
      ],
      "name": "Transfer",
      "type": "event"
    },
    {
      "inputs": [
        {
          "internalType": "address",
          "name": "to",
          "type": "address"
        },
        {
          "internalType": "uint256",
          "name": "tokenId",
          "type": "uint256"
        }
      ],
      "name": "approve",
      "outputs": [],
      "stateMutability": "nonpayable",
      "type": "function"
    },
    {
      "inputs": [
        {
          "internalType": "address",
          "name": "owner",
          "type": "address"
        }
      ],
      "name": "balanceOf",
      "outputs": [
        {
          "internalType": "uint256",
          "name": "",
          "type": "uint256"
        }
      ],
      "stateMutability": "view",
      "type": "function"
    },
    {
      "inputs": [
        {
          "internalType": "uint256",
          "name": "tokenId",
          "type": "uint256"
        }
      ],
      "name": "getApproved",
      "outputs": [
        {
          "internalType": "address",
          "name": "",
          "type": "address"
        }
      ],
      "stateMutability": "view",
      "type": "function"
    },
    {
      "inputs": [
        {
          "internalType": "address",
          "name": "owner",
          "type": "address"
        },
        {
          "internalType": "address",
          "name": "operator",
          "type": "address"
        }
      ],
      "name": "isApprovedForAll",
      "outputs": [
        {
          "internalType": "bool",
          "name": "",
          "type": "bool"
        }
      ],
      "stateMutability": "view",
      "type": "function"
    },
    {
      "inputs": [],
      "name": "isPublicMintEnabled",
      "outputs": [
        {
          "internalType": "bool",
          "name": "",
          "type": "bool"
        }
      ],
      "stateMutability": "view",
      "type": "function"
    },
    {
      "inputs": [],
      "name": "maxPerWallet",
      "outputs": [
        {
          "internalType": "uint256",
          "name": "",
          "type": "uint256"
        }
      ],
      "stateMutability": "view",
      "type": "function"
    },
    {
      "inputs": [],
      "name": "maxSupply",
      "outputs": [
        {
          "internalType": "uint256",
          "name": "",
          "type": "uint256"
        }
      ],
      "stateMutability": "view",
      "type": "function"
    },
    {
      "inputs": [
        {
          "internalType": "uint256",
          "name": "_quantity",
          "type": "uint256"
        }
      ],
      "name": "mint",
      "outputs": [],
      "stateMutability": "payable",
      "type": "function"
    },
    {
      "inputs": [],
      "name": "mintPrice",
      "outputs": [
        {
          "internalType": "uint256",
          "name": "",
          "type": "uint256"
        }
      ],
      "stateMutability": "view",
      "type": "function"
    },
    {
      "inputs": [],
      "name": "name",
      "outputs": [
        {
          "internalType": "string",
          "name": "",
          "type": "string"
        }
      ],
      "stateMutability": "view",
      "type": "function"
    },
    {
      "inputs": [],
      "name": "owner",
      "outputs": [
        {
          "internalType": "address",
          "name": "",
          "type": "address"
        }
      ],
      "stateMutability": "view",
      "type": "function"
    },
    {
      "inputs": [
        {
          "internalType": "uint256",
          "name": "tokenId",
          "type": "uint256"
        }
      ],
      "name": "ownerOf",
      "outputs": [
        {
          "internalType": "address",
          "name": "",
          "type": "address"
        }
      ],
      "stateMutability": "view",
      "type": "function"
    },
    {
      "inputs": [],
      "name": "renounceOwnership",
      "outputs": [],
      "stateMutability": "nonpayable",
      "type": "function"
    },
    {
      "inputs": [
        {
          "internalType": "address",
          "name": "from",
          "type": "address"
        },
        {
          "internalType": "address",
          "name": "to",
          "type": "address"
        },
        {
          "internalType": "uint256",
          "name": "tokenId",
          "type": "uint256"
        }
      ],
      "name": "safeTransferFrom",
      "outputs": [],
      "stateMutability": "nonpayable",
      "type": "function"
    },
    {
      "inputs": [
        {
          "internalType": "address",
          "name": "from",
          "type": "address"
        },
        {
          "internalType": "address",
          "name": "to",
          "type": "address"
        },
        {
          "internalType": "uint256",
          "name": "tokenId",
          "type": "uint256"
        },
        {
          "internalType": "bytes",
          "name": "_data",
          "type": "bytes"
        }
      ],
      "name": "safeTransferFrom",
      "outputs": [],
      "stateMutability": "nonpayable",
      "type": "function"
    },
    {
      "inputs": [
        {
          "internalType": "address",
          "name": "operator",
          "type": "address"
        },
        {
          "internalType": "bool",
          "name": "approved",
          "type": "bool"
        }
      ],
      "name": "setApprovalForAll",
      "outputs": [],
      "stateMutability": "nonpayable",
      "type": "function"
    },
    {
      "inputs": [
        {
          "internalType": "string",
          "name": "_baseTokenUri",
          "type": "string"
        }
      ],
      "name": "setBaseTokenUri",
      "outputs": [],
      "stateMutability": "nonpayable",
      "type": "function"
    },
    {
      "inputs": [
        {
          "internalType": "bool",
          "name": "_isPublicMintEnabled",
          "type": "bool"
        }
      ],
      "name": "setIsPublicMintEnabled",
      "outputs": [],
      "stateMutability": "nonpayable",
      "type": "function"
    },
    {
      "inputs": [
        {
          "internalType": "bytes4",
          "name": "interfaceId",
          "type": "bytes4"
        }
      ],
      "name": "supportsInterface",
      "outputs": [
        {
          "internalType": "bool",
          "name": "",
          "type": "bool"
        }
      ],
      "stateMutability": "view",
      "type": "function"
    },
    {
      "inputs": [],
      "name": "symbol",
      "outputs": [
        {
          "internalType": "string",
          "name": "",
          "type": "string"
        }
      ],
      "stateMutability": "view",
      "type": "function"
    },
    {
      "inputs": [
        {
          "internalType": "uint256",
          "name": "_tokenId",
          "type": "uint256"
        }
      ],
      "name": "tokenURI",
      "outputs": [
        {
          "internalType": "string",
          "name": "",
          "type": "string"
        }
      ],
      "stateMutability": "view",
      "type": "function"
    },
    {
      "inputs": [],
      "name": "totalSupply",
      "outputs": [
        {
          "internalType": "uint256",
          "name": "",
          "type": "uint256"
        }
      ],
      "stateMutability": "view",
      "type": "function"
    },
    {
      "inputs": [
        {
          "internalType": "address",
          "name": "from",
          "type": "address"
        },
        {
          "internalType": "address",
          "name": "to",
          "type": "address"
        },
        {
          "internalType": "uint256",
          "name": "tokenId",
          "type": "uint256"
        }
      ],
      "name": "transferFrom",
      "outputs": [],
      "stateMutability": "nonpayable",
      "type": "function"
    },
    {
      "inputs": [
        {
          "internalType": "address",
          "name": "newOwner",
          "type": "address"
        }
      ],
      "name": "transferOwnership",
      "outputs": [],
      "stateMutability": "nonpayable",
      "type": "function"
    },
    {
      "inputs": [
        {
          "internalType": "address",
          "name": "",
          "type": "address"
        }
      ],
      "name": "walletMints",
      "outputs": [
        {
          "internalType": "uint256",
          "name": "",
          "type": "uint256"
        }
      ],
      "stateMutability": "view",
      "type": "function"
    },
    {
      "inputs": [],
      "name": "withdraw",
      "outputs": [],
      "stateMutability": "nonpayable",
      "type": "function"
    },
    {
      "inputs": [],
      "name": "withdrawWallet",
      "outputs": [
        {
          "internalType": "address payable",
          "name": "",
          "type": "address"
        }
      ],
      "stateMutability": "view",
      "type": "function"
    }
  ],
  "bytecode": "0x60806040526040518060400160405280600981526020017f526f626f50756e6b7300000000000000000000000000000000000000000000008152506040518060400160405280600281526020017f525000000000000000000000000000000000000000000000000000000000000081525081600090805190602001906200008892919062000214565b508060019080519060200190620000a192919062000214565b505050620000c4620000b86200014660201b60201c565b6200014e60201b60201c565b66470de4df82000060078190555060006008819055506103e86009819055506003600a81905550734b1865b7786c517b2dfe6f8c4727320ff5178e6c600d60006101000a81548173ffffffffffffffffffffffffffffffffffffffff021916908373ffffffffffffffffffffffffffffffffffffffff16021790555062000329565b600033905090565b6000600660009054906101000a900473ffffffffffffffffffffffffffffffffffffffff16905081600660006101000a81548173ffffffffffffffffffffffffffffffffffffffff021916908373ffffffffffffffffffffffffffffffffffffffff1602179055508173ffffffffffffffffffffffffffffffffffffffff168173ffffffffffffffffffffffffffffffffffffffff167f8be0079c531659141344cd1fd0a4f28419497f9722a3daafe3b4186f6b6457e060405160405180910390a35050565b8280546200022290620002f3565b90600052602060002090601f01602090048101928262000246576000855562000292565b82601f106200026157805160ff191683800117855562000292565b8280016001018555821562000292579182015b828111156200029157825182559160200191906001019062000274565b5b509050620002a19190620002a5565b5090565b5b80821115620002c0576000816000905550600101620002a6565b5090565b7f4e487b7100000000000000000000000000000000000000000000000000000000600052602260045260246000fd5b600060028204905060018216806200030c57607f821691505b60208210811415620003235762000322620002c4565b5b50919050565b6137cd80620003396000396000f3fe60806040526004361061019c5760003560e01c806370a08231116100ec578063a22cb4651161008a578063d5abeb0111610064578063d5abeb0114610593578063e985e9c5146105be578063f0293fd3146105fb578063f2fde38b146106385761019c565b8063a22cb46514610504578063b88d4fde1461052d578063c87b56dd146105565761019c565b80638da5cb5b116100c65780638da5cb5b1461046957806395652cfa1461049457806395d89b41146104bd578063a0712d68146104e85761019c565b806370a08231146103ea578063715018a61461042757806385d178f41461043e5761019c565b80632373ac221161015957806342842e0e1161013357806342842e0e1461032e578063453c2310146103575780636352211e146103825780636817c76c146103bf5761019c565b80632373ac22146102c557806323b872dd146102ee5780633ccfd60b146103175761019c565b80630116bc2d146101a157806301ffc9a7146101cc57806306fdde0314610209578063081812fc14610234578063095ea7b31461027157806318160ddd1461029a575b600080fd5b3480156101ad57600080fd5b506101b6610661565b6040516101c3919061216a565b60405180910390f35b3480156101d857600080fd5b506101f360048036038101906101ee91906121f1565b610674565b604051610200919061216a565b60405180910390f35b34801561021557600080fd5b5061021e610756565b60405161022b91906122b7565b60405180910390f35b34801561024057600080fd5b5061025b6004803603810190610256919061230f565b6107e8565b604051610268919061237d565b60405180910390f35b34801561027d57600080fd5b50610298600480360381019061029391906123c4565b61086d565b005b3480156102a657600080fd5b506102af610985565b6040516102bc9190612413565b60405180910390f35b3480156102d157600080fd5b506102ec60048036038101906102e7919061245a565b61098b565b005b3480156102fa57600080fd5b5061031560048036038101906103109190612487565b610a24565b005b34801561032357600080fd5b5061032c610a84565b005b34801561033a57600080fd5b5061035560048036038101906103509190612487565b610bd1565b005b34801561036357600080fd5b5061036c610bf1565b6040516103799190612413565b60405180910390f35b34801561038e57600080fd5b506103a960048036038101906103a4919061230f565b610bf7565b6040516103b6919061237d565b60405180910390f35b3480156103cb57600080fd5b506103d4610ca9565b6040516103e19190612413565b60405180910390f35b3480156103f657600080fd5b50610411600480360381019061040c91906124da565b610caf565b60405161041e9190612413565b60405180910390f35b34801561043357600080fd5b5061043c610d67565b005b34801561044a57600080fd5b50610453610def565b6040516104609190612528565b60405180910390f35b34801561047557600080fd5b5061047e610e15565b60405161048b919061237d565b60405180910390f35b3480156104a057600080fd5b506104bb60048036038101906104b691906125a8565b610e3f565b005b3480156104c957600080fd5b506104d2610ed1565b6040516104df91906122b7565b60405180910390f35b61050260048036038101906104fd919061230f565b610f63565b005b34801561051057600080fd5b5061052b600480360381019061052691906125f5565b61113a565b005b34801561053957600080fd5b50610554600480360381019061054f9190612765565b611150565b005b34801561056257600080fd5b5061057d6004803603810190610578919061230f565b6111b2565b60405161058a91906122b7565b60405180910390f35b34801561059f57600080fd5b506105a861122e565b6040516105b59190612413565b60405180910390f35b3480156105ca57600080fd5b506105e560048036038101906105e091906127e8565b611234565b6040516105f2919061216a565b60405180910390f35b34801561060757600080fd5b50610622600480360381019061061d91906124da565b6112c8565b60405161062f9190612413565b60405180910390f35b34801561064457600080fd5b5061065f600480360381019061065a91906124da565b6112e0565b005b600b60009054906101000a900460ff1681565b60007f80ac58cd000000000000000000000000000000000000000000000000000000007bffffffffffffffffffffffffffffffffffffffffffffffffffffffff1916827bffffffffffffffffffffffffffffffffffffffffffffffffffffffff1916148061073f57507f5b5e139f000000000000000000000000000000000000000000000000000000007bffffffffffffffffffffffffffffffffffffffffffffffffffffffff1916827bffffffffffffffffffffffffffffffffffffffffffffffffffffffff1916145b8061074f575061074e826113d8565b5b9050919050565b60606000805461076590612857565b80601f016020809104026020016040519081016040528092919081815260200182805461079190612857565b80156107de5780601f106107b3576101008083540402835291602001916107de565b820191906000526020600020905b8154815290600101906020018083116107c157829003601f168201915b5050505050905090565b60006107f382611442565b610832576040517f08c379a0000000000000000000000000000000000000000000000000000000008152600401610829906128fb565b60405180910390fd5b6004600083815260200190815260200160002060009054906101000a900473ffffffffffffffffffffffffffffffffffffffff169050919050565b600061087882610bf7565b90508073ffffffffffffffffffffffffffffffffffffffff168373ffffffffffffffffffffffffffffffffffffffff1614156108e9576040517f08c379a00000000000000000000000000000000000000000000000000000000081526004016108e09061298d565b60405180910390fd5b8073ffffffffffffffffffffffffffffffffffffffff166109086114ae565b73ffffffffffffffffffffffffffffffffffffffff1614806109375750610936816109316114ae565b611234565b5b610976576040517f08c379a000000000000000000000000000000000000000000000000000000000815260040161096d90612a1f565b60405180910390fd5b61098083836114b6565b505050565b60085481565b6109936114ae565b73ffffffffffffffffffffffffffffffffffffffff166109b1610e15565b73ffffffffffffffffffffffffffffffffffffffff1614610a07576040517f08c379a00000000000000000000000000000000000000000000000000000000081526004016109fe90612a8b565b60405180910390fd5b80600b60006101000a81548160ff02191690831515021790555050565b610a35610a2f6114ae565b8261156f565b610a74576040517f08c379a0000000000000000000000000000000000000000000000000000000008152600401610a6b90612b1d565b60405180910390fd5b610a7f83838361164d565b505050565b610a8c6114ae565b73ffffffffffffffffffffffffffffffffffffffff16610aaa610e15565b73ffffffffffffffffffffffffffffffffffffffff1614610b00576040517f08c379a0000000000000000000000000000000000000000000000000000000008152600401610af790612a8b565b60405180910390fd5b6000600d60009054906101000a900473ffffffffffffffffffffffffffffffffffffffff1673ffffffffffffffffffffffffffffffffffffffff1647604051610b4890612b6e565b60006040518083038185875af1925050503d8060008114610b85576040519150601f19603f3d011682016040523d82523d6000602084013e610b8a565b606091505b5050905080610bce576040517f08c379a0000000000000000000000000000000000000000000000000000000008152600401610bc590612bcf565b60405180910390fd5b50565b610bec83838360405180602001604052806000815250611150565b505050565b600a5481565b6000806002600084815260200190815260200160002060009054906101000a900473ffffffffffffffffffffffffffffffffffffffff169050600073ffffffffffffffffffffffffffffffffffffffff168173ffffffffffffffffffffffffffffffffffffffff161415610ca0576040517f08c379a0000000000000000000000000000000000000000000000000000000008152600401610c9790612c61565b60405180910390fd5b80915050919050565b60075481565b60008073ffffffffffffffffffffffffffffffffffffffff168273ffffffffffffffffffffffffffffffffffffffff161415610d20576040517f08c379a0000000000000000000000000000000000000000000000000000000008152600401610d1790612cf3565b60405180910390fd5b600360008373ffffffffffffffffffffffffffffffffffffffff1673ffffffffffffffffffffffffffffffffffffffff168152602001908152602001600020549050919050565b610d6f6114ae565b73ffffffffffffffffffffffffffffffffffffffff16610d8d610e15565b73ffffffffffffffffffffffffffffffffffffffff1614610de3576040517f08c379a0000000000000000000000000000000000000000000000000000000008152600401610dda90612a8b565b60405180910390fd5b610ded60006118b4565b565b600d60009054906101000a900473ffffffffffffffffffffffffffffffffffffffff1681565b6000600660009054906101000a900473ffffffffffffffffffffffffffffffffffffffff16905090565b610e476114ae565b73ffffffffffffffffffffffffffffffffffffffff16610e65610e15565b73ffffffffffffffffffffffffffffffffffffffff1614610ebb576040517f08c379a0000000000000000000000000000000000000000000000000000000008152600401610eb290612a8b565b60405180910390fd5b8181600c9190610ecc9291906120ac565b505050565b606060018054610ee090612857565b80601f0160208091040260200160405190810160405280929190818152602001828054610f0c90612857565b8015610f595780601f10610f2e57610100808354040283529160200191610f59565b820191906000526020600020905b815481529060010190602001808311610f3c57829003601f168201915b5050505050905090565b600b60009054906101000a900460ff16610fb2576040517f08c379a0000000000000000000000000000000000000000000000000000000008152600401610fa990612d5f565b60405180910390fd5b60075481610fc09190612dae565b3414611001576040517f08c379a0000000000000000000000000000000000000000000000000000000008152600401610ff890612e54565b60405180910390fd5b600954816008546110129190612e74565b1115611053576040517f08c379a000000000000000000000000000000000000000000000000000000000815260040161104a90612f16565b60405180910390fd5b600a5481600e60003373ffffffffffffffffffffffffffffffffffffffff1673ffffffffffffffffffffffffffffffffffffffff168152602001908152602001600020546110a19190612e74565b11156110e2576040517f08c379a00000000000000000000000000000000000000000000000000000000081526004016110d990612f82565b60405180910390fd5b60005b8181101561113657600060016008546110fe9190612e74565b90506008600081548092919061111390612fa2565b9190505550611122338261197a565b50808061112e90612fa2565b9150506110e5565b5050565b61114c6111456114ae565b8383611998565b5050565b61116161115b6114ae565b8361156f565b6111a0576040517f08c379a000000000000000000000000000000000000000000000000000000000815260040161119790612b1d565b60405180910390fd5b6111ac84848484611b05565b50505050565b60606111bd82611442565b6111fc576040517f08c379a00000000000000000000000000000000000000000000000000000000081526004016111f390613037565b60405180910390fd5b600c61120783611b61565b604051602001611218929190613173565b6040516020818303038152906040529050919050565b60095481565b6000600560008473ffffffffffffffffffffffffffffffffffffffff1673ffffffffffffffffffffffffffffffffffffffff16815260200190815260200160002060008373ffffffffffffffffffffffffffffffffffffffff1673ffffffffffffffffffffffffffffffffffffffff16815260200190815260200160002060009054906101000a900460ff16905092915050565b600e6020528060005260406000206000915090505481565b6112e86114ae565b73ffffffffffffffffffffffffffffffffffffffff16611306610e15565b73ffffffffffffffffffffffffffffffffffffffff161461135c576040517f08c379a000000000000000000000000000000000000000000000000000000000815260040161135390612a8b565b60405180910390fd5b600073ffffffffffffffffffffffffffffffffffffffff168173ffffffffffffffffffffffffffffffffffffffff1614156113cc576040517f08c379a00000000000000000000000000000000000000000000000000000000081526004016113c390613214565b60405180910390fd5b6113d5816118b4565b50565b60007f01ffc9a7000000000000000000000000000000000000000000000000000000007bffffffffffffffffffffffffffffffffffffffffffffffffffffffff1916827bffffffffffffffffffffffffffffffffffffffffffffffffffffffff1916149050919050565b60008073ffffffffffffffffffffffffffffffffffffffff166002600084815260200190815260200160002060009054906101000a900473ffffffffffffffffffffffffffffffffffffffff1673ffffffffffffffffffffffffffffffffffffffff1614159050919050565b600033905090565b816004600083815260200190815260200160002060006101000a81548173ffffffffffffffffffffffffffffffffffffffff021916908373ffffffffffffffffffffffffffffffffffffffff160217905550808273ffffffffffffffffffffffffffffffffffffffff1661152983610bf7565b73ffffffffffffffffffffffffffffffffffffffff167f8c5be1e5ebec7d5bd14f71427d1e84f3dd0314c0f7b2291e5b200ac8c7c3b92560405160405180910390a45050565b600061157a82611442565b6115b9576040517f08c379a00000000000000000000000000000000000000000000000000000000081526004016115b0906132a6565b60405180910390fd5b60006115c483610bf7565b90508073ffffffffffffffffffffffffffffffffffffffff168473ffffffffffffffffffffffffffffffffffffffff16148061163357508373ffffffffffffffffffffffffffffffffffffffff1661161b846107e8565b73ffffffffffffffffffffffffffffffffffffffff16145b8061164457506116438185611234565b5b91505092915050565b8273ffffffffffffffffffffffffffffffffffffffff1661166d82610bf7565b73ffffffffffffffffffffffffffffffffffffffff16146116c3576040517f08c379a00000000000000000000000000000000000000000000000000000000081526004016116ba90613338565b60405180910390fd5b600073ffffffffffffffffffffffffffffffffffffffff168273ffffffffffffffffffffffffffffffffffffffff161415611733576040517f08c379a000000000000000000000000000000000000000000000000000000000815260040161172a906133ca565b60405180910390fd5b61173e838383611cc2565b6117496000826114b6565b6001600360008573ffffffffffffffffffffffffffffffffffffffff1673ffffffffffffffffffffffffffffffffffffffff168152602001908152602001600020600082825461179991906133ea565b925050819055506001600360008473ffffffffffffffffffffffffffffffffffffffff1673ffffffffffffffffffffffffffffffffffffffff16815260200190815260200160002060008282546117f09190612e74565b92505081905550816002600083815260200190815260200160002060006101000a81548173ffffffffffffffffffffffffffffffffffffffff021916908373ffffffffffffffffffffffffffffffffffffffff160217905550808273ffffffffffffffffffffffffffffffffffffffff168473ffffffffffffffffffffffffffffffffffffffff167fddf252ad1be2c89b69c2b068fc378daa952ba7f163c4a11628f55a4df523b3ef60405160405180910390a46118af838383611cc7565b505050565b6000600660009054906101000a900473ffffffffffffffffffffffffffffffffffffffff16905081600660006101000a81548173ffffffffffffffffffffffffffffffffffffffff021916908373ffffffffffffffffffffffffffffffffffffffff1602179055508173ffffffffffffffffffffffffffffffffffffffff168173ffffffffffffffffffffffffffffffffffffffff167f8be0079c531659141344cd1fd0a4f28419497f9722a3daafe3b4186f6b6457e060405160405180910390a35050565b611994828260405180602001604052806000815250611ccc565b5050565b8173ffffffffffffffffffffffffffffffffffffffff168373ffffffffffffffffffffffffffffffffffffffff161415611a07576040517f08c379a00000000000000000000000000000000000000000000000000000000081526004016119fe9061346a565b60405180910390fd5b80600560008573ffffffffffffffffffffffffffffffffffffffff1673ffffffffffffffffffffffffffffffffffffffff16815260200190815260200160002060008473ffffffffffffffffffffffffffffffffffffffff1673ffffffffffffffffffffffffffffffffffffffff16815260200190815260200160002060006101000a81548160ff0219169083151502179055508173ffffffffffffffffffffffffffffffffffffffff168373ffffffffffffffffffffffffffffffffffffffff167f17307eab39ab6107e8899845ad3d59bd9653f200f220920489ca2b5937696c3183604051611af8919061216a565b60405180910390a3505050565b611b1084848461164d565b611b1c84848484611d27565b611b5b576040517f08c379a0000000000000000000000000000000000000000000000000000000008152600401611b52906134fc565b60405180910390fd5b50505050565b60606000821415611ba9576040518060400160405280600181526020017f30000000000000000000000000000000000000000000000000000000000000008152509050611cbd565b600082905060005b60008214611bdb578080611bc490612fa2565b915050600a82611bd4919061354b565b9150611bb1565b60008167ffffffffffffffff811115611bf757611bf661263a565b5b6040519080825280601f01601f191660200182016040528015611c295781602001600182028036833780820191505090505b5090505b60008514611cb657600182611c4291906133ea565b9150600a85611c51919061357c565b6030611c5d9190612e74565b60f81b818381518110611c7357611c726135ad565b5b60200101907effffffffffffffffffffffffffffffffffffffffffffffffffffffffffffff1916908160001a905350600a85611caf919061354b565b9450611c2d565b8093505050505b919050565b505050565b505050565b611cd68383611eaf565b611ce36000848484611d27565b611d22576040517f08c379a0000000000000000000000000000000000000000000000000000000008152600401611d19906134fc565b60405180910390fd5b505050565b6000611d488473ffffffffffffffffffffffffffffffffffffffff16612089565b15611ea2578373ffffffffffffffffffffffffffffffffffffffff1663150b7a02611d716114ae565b8786866040518563ffffffff1660e01b8152600401611d939493929190613631565b6020604051808303816000875af1925050508015611dcf57506040513d601f19601f82011682018060405250810190611dcc9190613692565b60015b611e52573d8060008114611dff576040519150601f19603f3d011682016040523d82523d6000602084013e611e04565b606091505b50600081511415611e4a576040517f08c379a0000000000000000000000000000000000000000000000000000000008152600401611e41906134fc565b60405180910390fd5b805181602001fd5b63150b7a0260e01b7bffffffffffffffffffffffffffffffffffffffffffffffffffffffff1916817bffffffffffffffffffffffffffffffffffffffffffffffffffffffff191614915050611ea7565b600190505b949350505050565b600073ffffffffffffffffffffffffffffffffffffffff168273ffffffffffffffffffffffffffffffffffffffff161415611f1f576040517f08c379a0000000000000000000000000000000000000000000000000000000008152600401611f169061370b565b60405180910390fd5b611f2881611442565b15611f68576040517f08c379a0000000000000000000000000000000000000000000000000000000008152600401611f5f90613777565b60405180910390fd5b611f7460008383611cc2565b6001600360008473ffffffffffffffffffffffffffffffffffffffff1673ffffffffffffffffffffffffffffffffffffffff1681526020019081526020016000206000828254611fc49190612e74565b92505081905550816002600083815260200190815260200160002060006101000a81548173ffffffffffffffffffffffffffffffffffffffff021916908373ffffffffffffffffffffffffffffffffffffffff160217905550808273ffffffffffffffffffffffffffffffffffffffff16600073ffffffffffffffffffffffffffffffffffffffff167fddf252ad1be2c89b69c2b068fc378daa952ba7f163c4a11628f55a4df523b3ef60405160405180910390a461208560008383611cc7565b5050565b6000808273ffffffffffffffffffffffffffffffffffffffff163b119050919050565b8280546120b890612857565b90600052602060002090601f0160209004810192826120da5760008555612121565b82601f106120f357803560ff1916838001178555612121565b82800160010185558215612121579182015b82811115612120578235825591602001919060010190612105565b5b50905061212e9190612132565b5090565b5b8082111561214b576000816000905550600101612133565b5090565b60008115159050919050565b6121648161214f565b82525050565b600060208201905061217f600083018461215b565b92915050565b6000604051905090565b600080fd5b600080fd5b60007fffffffff0000000000000000000000000000000000000000000000000000000082169050919050565b6121ce81612199565b81146121d957600080fd5b50565b6000813590506121eb816121c5565b92915050565b6000602082840312156122075761220661218f565b5b6000612215848285016121dc565b91505092915050565b600081519050919050565b600082825260208201905092915050565b60005b8381101561225857808201518184015260208101905061223d565b83811115612267576000848401525b50505050565b6000601f19601f8301169050919050565b60006122898261221e565b6122938185612229565b93506122a381856020860161223a565b6122ac8161226d565b840191505092915050565b600060208201905081810360008301526122d1818461227e565b905092915050565b6000819050919050565b6122ec816122d9565b81146122f757600080fd5b50565b600081359050612309816122e3565b92915050565b6000602082840312156123255761232461218f565b5b6000612333848285016122fa565b91505092915050565b600073ffffffffffffffffffffffffffffffffffffffff82169050919050565b60006123678261233c565b9050919050565b6123778161235c565b82525050565b6000602082019050612392600083018461236e565b92915050565b6123a18161235c565b81146123ac57600080fd5b50565b6000813590506123be81612398565b92915050565b600080604083850312156123db576123da61218f565b5b60006123e9858286016123af565b92505060206123fa858286016122fa565b9150509250929050565b61240d816122d9565b82525050565b60006020820190506124286000830184612404565b92915050565b6124378161214f565b811461244257600080fd5b50565b6000813590506124548161242e565b92915050565b6000602082840312156124705761246f61218f565b5b600061247e84828501612445565b91505092915050565b6000806000606084860312156124a05761249f61218f565b5b60006124ae868287016123af565b93505060206124bf868287016123af565b92505060406124d0868287016122fa565b9150509250925092565b6000602082840312156124f0576124ef61218f565b5b60006124fe848285016123af565b91505092915050565b60006125128261233c565b9050919050565b61252281612507565b82525050565b600060208201905061253d6000830184612519565b92915050565b600080fd5b600080fd5b600080fd5b60008083601f84011261256857612567612543565b5b8235905067ffffffffffffffff81111561258557612584612548565b5b6020830191508360018202830111156125a1576125a061254d565b5b9250929050565b600080602083850312156125bf576125be61218f565b5b600083013567ffffffffffffffff8111156125dd576125dc612194565b5b6125e985828601612552565b92509250509250929050565b6000806040838503121561260c5761260b61218f565b5b600061261a858286016123af565b925050602061262b85828601612445565b9150509250929050565b600080fd5b7f4e487b7100000000000000000000000000000000000000000000000000000000600052604160045260246000fd5b6126728261226d565b810181811067ffffffffffffffff821117156126915761269061263a565b5b80604052505050565b60006126a4612185565b90506126b08282612669565b919050565b600067ffffffffffffffff8211156126d0576126cf61263a565b5b6126d98261226d565b9050602081019050919050565b82818337600083830152505050565b6000612708612703846126b5565b61269a565b90508281526020810184848401111561272457612723612635565b5b61272f8482856126e6565b509392505050565b600082601f83011261274c5761274b612543565b5b813561275c8482602086016126f5565b91505092915050565b6000806000806080858703121561277f5761277e61218f565b5b600061278d878288016123af565b945050602061279e878288016123af565b93505060406127af878288016122fa565b925050606085013567ffffffffffffffff8111156127d0576127cf612194565b5b6127dc87828801612737565b91505092959194509250565b600080604083850312156127ff576127fe61218f565b5b600061280d858286016123af565b925050602061281e858286016123af565b9150509250929050565b7f4e487b7100000000000000000000000000000000000000000000000000000000600052602260045260246000fd5b6000600282049050600182168061286f57607f821691505b6020821081141561288357612882612828565b5b50919050565b7f4552433732313a20617070726f76656420717565727920666f72206e6f6e657860008201527f697374656e7420746f6b656e0000000000000000000000000000000000000000602082015250565b60006128e5602c83612229565b91506128f082612889565b604082019050919050565b60006020820190508181036000830152612914816128d8565b9050919050565b7f4552433732313a20617070726f76616c20746f2063757272656e74206f776e6560008201527f7200000000000000000000000000000000000000000000000000000000000000602082015250565b6000612977602183612229565b91506129828261291b565b604082019050919050565b600060208201905081810360008301526129a68161296a565b9050919050565b7f4552433732313a20617070726f76652063616c6c6572206973206e6f74206f7760008201527f6e6572206e6f7220617070726f76656420666f7220616c6c0000000000000000602082015250565b6000612a09603883612229565b9150612a14826129ad565b604082019050919050565b60006020820190508181036000830152612a38816129fc565b9050919050565b7f4f776e61626c653a2063616c6c6572206973206e6f7420746865206f776e6572600082015250565b6000612a75602083612229565b9150612a8082612a3f565b602082019050919050565b60006020820190508181036000830152612aa481612a68565b9050919050565b7f4552433732313a207472616e736665722063616c6c6572206973206e6f74206f60008201527f776e6572206e6f7220617070726f766564000000000000000000000000000000602082015250565b6000612b07603183612229565b9150612b1282612aab565b604082019050919050565b60006020820190508181036000830152612b3681612afa565b9050919050565b600081905092915050565b50565b6000612b58600083612b3d565b9150612b6382612b48565b600082019050919050565b6000612b7982612b4b565b9150819050919050565b7f7769746864726177206661696c65640000000000000000000000000000000000600082015250565b6000612bb9600f83612229565b9150612bc482612b83565b602082019050919050565b60006020820190508181036000830152612be881612bac565b9050919050565b7f4552433732313a206f776e657220717565727920666f72206e6f6e657869737460008201527f656e7420746f6b656e0000000000000000000000000000000000000000000000602082015250565b6000612c4b602983612229565b9150612c5682612bef565b604082019050919050565b60006020820190508181036000830152612c7a81612c3e565b9050919050565b7f4552433732313a2062616c616e636520717565727920666f7220746865207a6560008201527f726f206164647265737300000000000000000000000000000000000000000000602082015250565b6000612cdd602a83612229565b9150612ce882612c81565b604082019050919050565b60006020820190508181036000830152612d0c81612cd0565b9050919050565b7f4d696e74696e67206973206e6f7420656e61626c656400000000000000000000600082015250565b6000612d49601683612229565b9150612d5482612d13565b602082019050919050565b60006020820190508181036000830152612d7881612d3c565b9050919050565b7f4e487b7100000000000000000000000000000000000000000000000000000000600052601160045260246000fd5b6000612db9826122d9565b9150612dc4836122d9565b9250817fffffffffffffffffffffffffffffffffffffffffffffffffffffffffffffffff0483118215151615612dfd57612dfc612d7f565b5b828202905092915050565b7f57726f6e67206d696e742076616c756500000000000000000000000000000000600082015250565b6000612e3e601083612229565b9150612e4982612e08565b602082019050919050565b60006020820190508181036000830152612e6d81612e31565b9050919050565b6000612e7f826122d9565b9150612e8a836122d9565b9250827fffffffffffffffffffffffffffffffffffffffffffffffffffffffffffffffff03821115612ebf57612ebe612d7f565b5b828201905092915050565b7f736f6c64206f7574000000000000000000000000000000000000000000000000600082015250565b6000612f00600883612229565b9150612f0b82612eca565b602082019050919050565b60006020820190508181036000830152612f2f81612ef3565b9050919050565b7f4578636565646564206d61782077616c6c657400000000000000000000000000600082015250565b6000612f6c601383612229565b9150612f7782612f36565b602082019050919050565b60006020820190508181036000830152612f9b81612f5f565b9050919050565b6000612fad826122d9565b91507fffffffffffffffffffffffffffffffffffffffffffffffffffffffffffffffff821415612fe057612fdf612d7f565b5b600182019050919050565b7f546f6b656e20646f65736e277420657869737400000000000000000000000000600082015250565b6000613021601383612229565b915061302c82612feb565b602082019050919050565b6000602082019050818103600083015261305081613014565b9050919050565b600081905092915050565b60008190508160005260206000209050919050565b6000815461308481612857565b61308e8186613057565b945060018216600081146130a957600181146130ba576130ed565b60ff198316865281860193506130ed565b6130c385613062565b60005b838110156130e5578154818901526001820191506020810190506130c6565b838801955050505b50505092915050565b60006131018261221e565b61310b8185613057565b935061311b81856020860161223a565b80840191505092915050565b7f2e6a736f6e000000000000000000000000000000000000000000000000000000600082015250565b600061315d600583613057565b915061316882613127565b600582019050919050565b600061317f8285613077565b915061318b82846130f6565b915061319682613150565b91508190509392505050565b7f4f776e61626c653a206e6577206f776e657220697320746865207a65726f206160008201527f6464726573730000000000000000000000000000000000000000000000000000602082015250565b60006131fe602683612229565b9150613209826131a2565b604082019050919050565b6000602082019050818103600083015261322d816131f1565b9050919050565b7f4552433732313a206f70657261746f7220717565727920666f72206e6f6e657860008201527f697374656e7420746f6b656e0000000000000000000000000000000000000000602082015250565b6000613290602c83612229565b915061329b82613234565b604082019050919050565b600060208201905081810360008301526132bf81613283565b9050919050565b7f4552433732313a207472616e736665722066726f6d20696e636f72726563742060008201527f6f776e6572000000000000000000000000000000000000000000000000000000602082015250565b6000613322602583612229565b915061332d826132c6565b604082019050919050565b6000602082019050818103600083015261335181613315565b9050919050565b7f4552433732313a207472616e7366657220746f20746865207a65726f2061646460008201527f7265737300000000000000000000000000000000000000000000000000000000602082015250565b60006133b4602483612229565b91506133bf82613358565b604082019050919050565b600060208201905081810360008301526133e3816133a7565b9050919050565b60006133f5826122d9565b9150613400836122d9565b92508282101561341357613412612d7f565b5b828203905092915050565b7f4552433732313a20617070726f766520746f2063616c6c657200000000000000600082015250565b6000613454601983612229565b915061345f8261341e565b602082019050919050565b6000602082019050818103600083015261348381613447565b9050919050565b7f4552433732313a207472616e7366657220746f206e6f6e20455243373231526560008201527f63656976657220696d706c656d656e7465720000000000000000000000000000602082015250565b60006134e6603283612229565b91506134f18261348a565b604082019050919050565b60006020820190508181036000830152613515816134d9565b9050919050565b7f4e487b7100000000000000000000000000000000000000000000000000000000600052601260045260246000fd5b6000613556826122d9565b9150613561836122d9565b9250826135715761357061351c565b5b828204905092915050565b6000613587826122d9565b9150613592836122d9565b9250826135a2576135a161351c565b5b828206905092915050565b7f4e487b7100000000000000000000000000000000000000000000000000000000600052603260045260246000fd5b600081519050919050565b600082825260208201905092915050565b6000613603826135dc565b61360d81856135e7565b935061361d81856020860161223a565b6136268161226d565b840191505092915050565b6000608082019050613646600083018761236e565b613653602083018661236e565b6136606040830185612404565b818103606083015261367281846135f8565b905095945050505050565b60008151905061368c816121c5565b92915050565b6000602082840312156136a8576136a761218f565b5b60006136b68482850161367d565b91505092915050565b7f4552433732313a206d696e7420746f20746865207a65726f2061646472657373600082015250565b60006136f5602083612229565b9150613700826136bf565b602082019050919050565b60006020820190508181036000830152613724816136e8565b9050919050565b7f4552433732313a20746f6b656e20616c7265616479206d696e74656400000000600082015250565b6000613761601c83612229565b915061376c8261372b565b602082019050919050565b6000602082019050818103600083015261379081613754565b905091905056fea26469706673582212206d2ebf51a9cfd840e9091bc2132c2984fc36fbb0d851524dd16720ce1677e97b64736f6c634300080b0033",
  "linkReferences": {},
  "deployedLinkReferences": {}
}